S00C00004750494F2E73726563E9
S3150000000040060020ED0B00005D0A0000E90B000031
S31500000010E90B0000E90B0000E90B0000E90B00000A
S31500000020000000000000000000000000E90B0000D6
S31500000030E90B000000000000E90B0000E90B0000DE
S31500000040350800000000000000000000000000006D
S31500000050000000000000000000000000000000009A
S31500000060000000000000000000000000000000008A
S31500000070000000000000000000000000000000007A
S31500000080000000000000000000000000000000006A
S31500000090000000000000000000000000000000005A
S315000000A0000000000000000000000000000000004A
S315000000B0000000000000000000000000000000003A
S315000000C0000000000000000000000000000000002A
S315000000D0000000000000000000000000000000001A
S315000000E0000000000000000000000000000000000A
S315000000F000000000000000000000000000000000FA
S3150000010000000000000000000000000000000000E9
S3150000011000000000000000000000000000000000D9
S3150000012000000000000000000000000000000000C9
S3150000013000000000000000000000000000000000B9
S3150000014000000000000000000000000000000000A9
S315000001500000000000000000000000000000000099
S315000001600000000000000000000000000000000089
S315000001700000000000000000000000000000000079
S315000001800000000000000000000000000000000069
S315000001900000000000000000000000000000000059
S315000001A00000000000000000000000000000000049
S315000001B00000000000000000000000000000000039
S315000001C0FFFFFFFFFFFFFFFFFFFFFFFFFFFFFFFF39
S315000001D0FFFFFFFFFFFFFFFFFFFFFFFFFFFFFFFF29
S315000001E0FFFFFFFFFFFFFFFFFFFFFFFFFFFFFFFF19
S315000001F0FFFFFFFFFFFFFFFFFFFFFFFFFFFFFFFF09
S3150000020010B5054C237833B9044B13B1044800E00C
S3150000021000BF0123237010BD28000020000000004D
S315000002207411000008B5034B1BB10349034800E0F5
S3150000023000BF08BD000000002C0000207411000063
S31500000240002370B5134A144E144915485568336097
S3150000025000F04CFA124800F015FA0028FDD1114CB6
S315000002603268298862B10122204600F069F800222E
S31500000270A988204600F064F832682988002AF2D15D
S31500000280204600F05DF801222046A98800F058F8C3
S31500000290E6E700BF64110000440000205C0D00008A
S315000002A05000002048000020022800D07047024B72
S315000002B00248596800F082B9500D0000480000203D
S315000002C0034A1368B3FA83F35B091360704700BFF0
S315000002D04400002008B5FFF7B3FF002008BD00BFAB
S315000002E00022034610461A60704700BF0B0A10B47E
S315000002F01B01064C53FA81F154F821300020C3F358
S3150000030040035DF8044B1370704700BF00080840B7
S31500000310090A490101F1804101F500214B680020DD
S3150000032013807047090A490123EA020C01F1804152
S315000003301A4001F5002142EA0C4200208A6070470B
S315000003400123C8B283404AB91A040B0A5B0103F1C0
S31500000350804303F5002300209A6070479AB2F4E7C1
S31500000360090A490101F1804101F5002110B40C6828
S3150000037002EA030C4CEA040C62EA030202EA0C02EB
S3150000038000205DF8044B0A60704700BF090A490166
S3150000039001F1804101F500214B680020C3F30F43B2
S315000003A013807047012310B44FEA112C4FEA4C1CFE
S315000003B00CF1804C0CF5002CDCF80440C9B203FAB1
S315000003C001F18BB201EA1441C91AB1FA81F1490966
S315000003D000205DF8044B1170704700BF090A4901FF
S315000003E023EA020C01F180411A4001F5002142EA9C
S315000003F00C420020CA607047014B00201A707047FB
S31500000400000D0840012A14D04FF480300B0A5B011E
S3150000041003F1804303F5002310B4CAB2DC6800FA86
S3150000042002F22243120C120400205DF8044BDA603B
S3150000043070470B0A5B0103F1804303F50023D8687C
S31500000440C9B28A40024392B20020DA60704700BF08
S3150000045038B50488002C4CD00021436840F2024590
S31500000460043303EBC40040F2034C40F2044E0C4646
S315000004700FE062452FD153F8042C02F0B852B2F1C6
S31500000480807F14BF41F0020144F002040833834226
S3150000049010D01A88AA42ECD153F8042C083302F083
S315000004A0B852B2F1807F14BF41F0010144F001045B
S315000004B08342EED1C943CDB2012000F06BFB0E4B57
S315000004C0012093F8BB2414432C4083F8BB44BDE8B9
S315000004D0384000F02FBB7245D8D153F8042C02F0F7
S315000004E0B852B2F1807F0CBF44F0040441F004011D
S315000004F0CCE7FF25E0E700BF00E00140F8B5044681
S31500000500FFF7A6FFEFF31082012383F31088284E2E
S3150000051033681BB92749CB704023CB70336801334E
S31500000520336082F3108823887BB3626803F1FF3E51
S315000005301FFA8EFE02F108011F4C01EBCE0E08E0F9
S31500000540D2B21B0113448E450A4644F823001CD040
S3150000055008311068928810F4803F4FEA1223EFD0DA
S31500000560130AD2B202EB031C54F82C701B0113447D
S3150000057020F480356FF310478E4544F82C700A46F8
S3150000058044F82C5044F82300E2D1EFF31082012303
S3150000059083F31088336813B13368013B33603368E3
S315000005A01BB980200349CB70C87082F31088F8BD50
S315000005B0B0000020000D08400008084008B5034BB5
S315000005C003600846FFF79AFF002008BD54524F50BB
S315000005D008B50846FFF792FF002008BD70B5012652
S315000005E084B002AB68460C4615460193ADF8006030
S315000005F0ADF80C100292FFF72BFFEFF3108286F393
S3150000060010881D490B681BB940261C48C370C6706C
S315000006100B6801330B6082F31088EA034FEA142358
S31500000620E4B219D41B01164A234442F82350EFF3CF
S315000006301082012383F310880B6813B10B68013B0A
S315000006400B600B681BB980200C49CB70C87082F315
S315000006501088002004B070BD094A04EB031052F85C
S3150000066020601B016FF3104642F8206025F48036A7
S3150000067042F82060D7E700BFB0000020000D084018
S315000006800008084003460020D3E902235360704760
S31500000690002800DA70474FF0010C10B400F16043F7
S315000006A00901104CC9B203F5614383F800130E4BE0
S315000006B044F8202000F1C00253F822106FF31041D5
S315000006C043F8221043099B0000F01F0003F160432A
S315000006D003F561430CFA00F0C3F880015DF8044BA2
S315000006E018607047B400002000600040F8B501258E
S315000006F00446087C0A4605FA00F3E3601B0718BFA8
S31500000700002361604FF0000118BF2374374B08BF08
S315000007102574034450691B02A3606061D2E9063563
S31500000720C4E90613EFF31087012383F310884FF013
S3150000073000402F4B167C20FA06F6186920EA0600C0
S3150000074018611B6987F310884FF42540D5E906EC3C
S31500000750A3684FF000471860D962D963996410788E
S31500000760117A03284FF000004FEAC151566808BFBE
S3150000077041F48031D962E96A013E1F615F619F6180
S3150000078058629862C3F81CE0C3F820C09E665E6695
S315000007909863C3F8880031B995F8211095F82000C0
S315000007A0490741EA40314FF4AA00032618640120A4
S315000007B0E768DF6059631E631863517C92F9120083
S315000007C02246FFF765FF224695F8221095F9240088
S315000007D0FFF75EFF95F92500224695F82310FFF7EF
S315000007E057FF044B00202360F8BD00BF9016400061
S315000007F0004008405450470070B5836984B00446F1
S315000008008C46164601AD9BB193E8070085E80700C4
S3150000081083F804C0E26918469E601A6063699847C7
S31500000820A3691BB195E8070083E8070004B070BD13
S315000008302B46EDE770B5EFF30383103B194A5BB225
S3150000084003F1C00152F82100174C6FF3104042F833
S31500000850210054F82300446894F800C0BCF1010F4D
S3150000086017D1D0E902560024AE60AC64EC642C6566
S3150000087052F821504FEA531E0C4E03F01F030CFA98
S3150000088003F364F310450EF1600C42F8215046F86C
S315000008902C3043692BB1BDE8704000221146FFF7AA
S315000008A0ABBF70BD00600040B400002000E100E076
S315000008B0064B074993F826001A6A51F82030C2F30E
S315000008C002620449D3400B60704700BF00E001405C
S315000008D0080000203C020020F8B54AF2035001232C
S315000008E03749384AA1F8FE03A2F80431B2F80431B8
S315000008F09BB2002BFAD101214FF400454FF0090CB1
S31500000900314CDFF8DCE0314EC4F804E0DFF8D4E027
S315000009102B48C4F80CE02E4FA2F800112D4AB16006
S3150000092031606261276090F82620A5602561056A1E
S3150000093054F82220C5F30265EA40274D2A6080F864
S31500000940133480F8A2C090F8803493B300231C4976
S3150000095081F8813481F8803481F8323091F83C3066
S315000009601A07FBD543F202100023154A088581F8C1
S315000009702A3092F83C309B06FBD503200521114B0B
S3150000098083F81C01154B82F82610136292F8263064
S31500000990116A54F82330C1F30261CB402B60012069
S315000009A04FF4254382F8300082F85200A2F8FE3355
S315000009B0F8BD80F8801440F2C44000F01BF8C5E78B
S315000009C000E0014000C00140080000200070004027
S315000009D0002D310100C2EB0B3C0200202112012048
S315000009E000127A0000366E01A0F101000028FBD14A
S315000009F0704700BF10B54FF47A72164C164B246838
S31500000A004FF0000EB3FBF4FC4FF0FF3300FB01F197
S31500000A10A1FB020483427EEB040407D3B0FBFCF087
S31500000A20800880B1BDE81040FFF7DEBF4FEA8C0CAE
S31500000A30B1FBFCF1A1FB02128B427EEB020203D357
S31500000A4008460028EED110BD1846BDE81040FFF755
S31500000A50CBBF00BF3C02002000CA9A3B70B5002401
S31500000A600A4B0B4EB3F84051ADB225FA04F3DB073F
S31500000A70E0B203D556F8243003B198470134102C60
S31500000A80F3D1024BA3F8305170BD00BF00600040A7
S31500000A907000002030B56FF0FF0585B0032000F030
S31500000AA079F84FF0FF311F4C1F482246856400231A
S31500000AB00125CDE90111039104F1C00E32F8020FB0
S31500000AC0590960B104A800EB810151F80C0C03F040
S31500000AD01F0C05FA0CFC20EA0C0041F80C0C7245C0
S31500000AE003F10103EAD10199104B0F4A0320116764
S31500000AF0C3F8801202995167C3F88412039991676B
S31500000B00C3F8881200F016F80023094803F1C00262
S31500000B1034F8021F0133602B40F82210F6D105B0DD
S31500000B2030BD00BF621000000080004000E100E020
S31500000B3000600040EFF31081012383F31088124B0D
S31500000B4033F8102092B22AB133F81020013A92B24B
S31500000B5023F8102033F810309BB293B90B4A10B427
S31500000B60B2F8FE330A4C9BB234F8100043F4254326
S31500000B7023EA0003A2F8FE3381F310885DF8044BE4
S31500000B80704781F3108870473402002000E001406E
S31500000B905C11000030B4EFF31081012383F3108859
S31500000BA00E4A32F810309BB26BB90D4C0D4DB4F8AD
S31500000BB0FE3335F810C09BB243EA0C0343F42543D9
S31500000BC09BB2A4F8FE3332F8103001339BB222F800
S31500000BD0103081F3108830BC704700BF340200200B
S31500000BE000E001405C11000000BE704708B500F04F
S31500000BF003F8FFF76FFBFEE74FF47001234B244A1F
S31500000C0070B50020C3F888109A60FFF74DFBFFF718
S31500000C1063FE0120FFF748FB1E4B83F30A881E483C
S31500000C201E4A0021121A00F056F81D481D4A1E4998
S31500000C30121A00F043F81D4D1D4B5B1B002B07DD00
S31500000C4000249E1055F8043B01349847A642F9DC6F
S31500000C50FFF72EFE0320FFF79DFF00234FF6FF70E0
S31500000C60144903F108020133092B21F81200F8D1C7
S31500000C700320FFF75FFF0220FFF716FBFFF70AFFCF
S31500000C80BDE87040002000F017B800BF00ED00E09E
S31500000C900000000040020020280000204002002042
S31500000CA0000000200800002078110000000000204D
S31500000CB004000020000D0840704700BF0A44431E90
S31500000CC0914200D1704710B511F8014B914203F8DB
S31500000CD0014FF9D110BD02440346934200D170473B
S31500000CE003F8011BF9E7FFFF4275696C7420776909
S31500000CF074682052656E6573617320416476616E17
S31500000D0063656420466C657869626C6520536F661E
S31500000D107477617265205061636B616765207665E3
S31500000D207273696F6E20332E382E3000332E382EB4
S31500000D303000000000000803F8B500BFF8BC08BC8E
S31500000D409E467047F8B500BFF8BC08BC9E46704783
S31500000D5048000020AC0D0000241100000000000037
S31500000D6000E1F5050000000080F0FA020001000035
S31500000D70C1020000000000007C0D00000000000021
S31500000D80000000000000000000000000000000005D
S31500000D900000000000000000000000000000FFFF4F
S31500000DA0DFDF000000000000000000005600000029
S31500000DB0B40D00000080000000000000008000006C
S31500000DC0010000000080000002000000008000001A
S31500000DD00300000000400000040000000040000086
S31500000DE005000000040000000600000004000000EA
S31500000DF0070000000400000008000000008000005A
S31500000E000E000000008000000F0000000008011C1A
S31500000E10000100000008011C010100000008011C7F
S31500000E20020100000008011C030100000008011C6B
S31500000E30040100000008011C050100000008011C57
S31500000E40060100000008011C070100000000010067
S31500000E5008010000000C01030B010000040C000057
S31500000E600C010000040C00000D010000040C000041
S31500000E700E010000040C00000F010000000C01062A
S31500000E8002020000000C010603020000000C01062D
S31500000E9004020000000C010605020000000C010619
S31500000EA006020000040C000007020000000001001A
S31500000EB000030000000C010601030000000C0106FF
S31500000EC002030000040C000003030000000C0111E3
S31500000ED005030000000C011106030000000C0111BF
S31500000EE007030000000C011108030000000C0111AB
S31500000EF009030000000C01110A030000040C0000A5
S31500000F000B0300001040000000040000000C011755
S31500000F1001040000000C011702040000050C00008B
S31500000F2003040000040C000004040000000C011778
S31500000F3005040000000C011706040000000C011354
S31500000F4007040000040C0000080400001040000024
S31500000F5009040000000C01060A040000000C01064A
S31500000F600B040000000C01060C040000000C010636
S31500000F700D040000000C01070E040000000C010720
S31500000F800F040000000C011300050000000C011303
S31500000F9001050000400C010405050000400C010499
S31500000FA006050000000C01070B050000000C0107F8
S31500000FB00C0500000008011C000600000008011CCA
S31500000FC0010600000000011C02060000040C0000DF
S31500000FD008060000000001100906000000000110CC
S31500000FE00A060000040C00000B06000000000105C4
S31500000FF00D060000000001050E06000005040000B5
S315000010000F060000000C011700070000000C011776
S3150000101001070000000C011702070000000C011771
S3150000102003070000000C011704070000000C01175D
S31500001030050700000040000006070000000001143C
S3150000104007070000000C010608070000104000001A
S3150000105005090000000C0114000B0000000C01142F
S31500001060010B0000C60000000000000000000000A8
S31500001070000000000000000000000000000000006A
S31500001080000000000000000000000000000000005A
S31500001090000000000000000000000000000000004A
S315000010A0000000000000000000000000000000003A
S315000010B0000000000000000000000000000000002A
S315000010C0000000000000000000000000000000001A
S315000010D0000000000000000000000000000000000A
S315000010E000000000000000000000000000000000FA
S315000010F000000000000000000000000000000000EA
S3150000110000000000000000000000000000000000D9
S3150000111000000000000000000000000000000000C9
S3150000112000000000BD050000E1020000D10500003E
S31500001130DD050000A503000005040000F90300001A
S31500001140ED02000041030000610300008D03000072
S31500001150DD0300001103000025030000010002006A
S3150000116008001000030000006C11000006000700D4
S30D000011700800FFFF000000006B
S30D0000117825020000010200003F
S3150100A100FFFFFFFFFFFFFFFFFFFFFFFFFFFFFFFF58
S3150100A110FFFFFFFFFFFFFFFFFFFFFFFFFFFFFFFF48
S3150100A120FFFFFFFFFFFFFFFFFFFFFFFFFFFFFFFF38
S30D0100A130FFFFFFFFFFFFFFFF28
S3150100A200FFFDFFFFFFFFFFFFFFFFFFFFFFFFFFFF59
S3150100A210FFFFFFFFFFFFFFFFFFFFFFFFFFFFFFFF47
S3150100A220FFFFFFFFFFFFFFFFFFFFFFFFFFFFFFFF37
S3150100A230FFFFFFFFFFFFFFFFFFFFFFFFFFFFFFFF27
S3150100A240FFFFFFFFFFFFFFFFFFFFFFFFFFFFFFFF17
S3150100A250FFFFFFFFFFFFFFFFFFFFFFFFFFFFFFFF07
S3150100A260FFFFFFFFFFFFFFFFFFFFFFFFFFFFFFFFF7
S3150100A270FFFFFFFFFFFFFFFFFFFFFFFFFFFFFFFFE7
S3150100A280F8F8FFFFFFFFFFFFFFFFFFFFFFFFFFFFE5
S3150100A290FFFFFFFFFFFFFFFFFFFFFFFFFFFFFFFFC7
S3150100A2A0FFFFFFFFFFFFFFFFFFFFFFFFFFFFFFFFB7
S3150100A2B0FFFFFFFFFFFFFFFFFFFFFFFFFFFFFFFFA7
S3110100A2C0FFFFFFFFFFFFFFFFFFFFFFFF97
S70500000BED02
